:040000000C948600D6
:1400E4000000002E00DF00202054656D70203A20202020202B
:1300F800202000436F6D706173733A2020202020202000C5
:14010C00CFEFD1E2CDBFDEBFCE51D0400AEA08830024E7E2AA
:14012000F2E012E0E732F10711F00192FBCF0083E4EEF0E073
:14013400A0E0B2E011E000E00BBFEB30F10721F0C8953196C2
:140148000D92F9CF0E94EA01FFCF000008950E948E025801B9
:14015C004427552703C0F7DF4F5F5F4F4A155B05D0F30C9491
:1401700093020027112702C00F5F1F4F0437E4E01E07D0F302
:1401840008950E948E0258014427552703C0EFDF4F5F5F4F6B
:140198004A155B05D0F30C94930284EA86BF26B627FEFDCF1C
:1401AC0081B1887F883011F001E028C080EE83B984E886BF29
:1401C00026B627FEFDCF81B1887F883111F001E01BC023B9D3
:1401D40084E886BF26B627FEFDCF81B1887F883211F001E0C4
:1401E8000FC003B984E886BF26B627FEFDCF81B1887F883207
:1401FC0011F001E003C084E986BF00270895AA9284EA86BFE5
:1402100026B627FEFDCF81B1887F883011F001E040C080EECC
:1402240083B984E886BF26B627FEFDCF81B1887F883111F019
:1402380001E033C003B984E886BF26B627FEFDCF81B1887F6B
:14024C00883211F001E027C084EA86BF26B627FEFDCF81B169
:14026000887F803111F001E01CC081EE83B984E886BF26B6DC
:1402740027FEFDCF81B1887F803411F001E00FC084E886BF36
:1402880026B627FEFDCF81B1887F883511F001E004C0A3B0A6
:14029C0084E986BF0A2DA990089522978AB3806F8ABBA79A24
:1402B000A69A08E223D01CD008E210E04CDF08E21DD00CE069
:1402C4001BD001E019D002E010E05BDF87E192E09983888364
:1402D800222700275AD087E092E09983888321E0002753D02D
:1402EC0022960895AF9A01E010E02FDFAF9808954A93402F51
:1403000000E110E028DFAE988BB38F708BBB842F807F2BB2B9
:14031400282A2BBAEBDF842F8F708295482F8BB38F708BBB11
:14032800842F807F2BB2282A2BBADEDF499108954A93402F7B
:14033C0000E110E00ADFAE9A8BB38F708BBB842F807F2BB299
:14035000282A2BBACDDF842F8F708295482F8BB38F708BBBF3
:14036400842F807F2BB2282A2BBAC0DF499108950E9498026D
:14037800A22E602FAA2019F4462F405802C0462F4054042F30
:14038C00B7DF0C949F020E94A602C22EA02E4E815F812C2D76
:1403A0000A2DE8DF05C0FA010081C6DF4F5F5F4FFA0120806E
:1403B4002220B9F70C94AD02AA92CA92C22EA02E2C2D0A2D0E
:1403C800D5DF0A81B5DFC990A9900895229709E110E0D5DED9
:1403DC0064DF4AC0222701E3DEDEE02E222426BE0FE010E0C0
:1403F000CADEEE20C9F401E010E007DFA02E02E010E003DF4D
:14040400C02E4A2D5527542F44272C2C3324420D531D8A011C
:1404180030D080E092E099838883222709E0B5DF222705E3E0
:14042C00BADE402FE42E222426BE0AE010E0A5DE4423D1F4F0
:1404400005E010E0E2DEE02EAE2C06E010E0DDDEE02ECE2C92
:14045400BB24BA2CAA242C2C3324A20CB31C85010AD080E015
:1404680092E09983888321E009E08FDFB5CF229608954A93D9
:14047C005A93A80128EE33E08A010E947402C801C0968093D8
:14049000000228EE33E08A010E947202A80124E630E00E9427
:1404A4007402C801C0968093010224E630E08A010E947202DE
:1404B800A8012AE030E00E947402C801C096809302022AE015
:1404CC0030E08A010E947202A801CA01C0968093040259919E
:1404E00049910895689401C0E894EA92FA928A93EE24FF24FE
:1404F40080E1000F111FEE1CFF1CE216F30618F0E21AF30A3D
:1405080003958A95A1F716F40E2D1F2D8991F990E990089546
:14051C005A934A93BA92AA920895A990B990499159910895F9
:140530007A936A935A934A93BA92AA920895A990B990499162
:1405440059916991799108955A934A93DA92CA92BA92AA92FE
:100558000895A990B990C990D99049915991089551
:00000001FF
